{
  "contractName": "Factory",
  "abi": [
    {
      "inputs": [],
      "stateMutability": "nonpayable",
      "type": "constructor"
    },
    {
      "inputs": [],
      "name": "owner",
      "outputs": [
        {
          "internalType": "address",
          "name": "",
          "type": "address"
        }
      ],
      "stateMutability": "view",
      "type": "function"
    },
    {
      "inputs": [],
      "name": "sweetToken",
      "outputs": [
        {
          "internalType": "contract SweetToken",
          "name": "",
          "type": "address"
        }
      ],
      "stateMutability": "view",
      "type": "function"
    },
    {
      "inputs": [
        {
          "internalType": "uint256",
          "name": "_amount",
          "type": "uint256"
        }
      ],
      "name": "deposit",
      "outputs": [],
      "stateMutability": "nonpayable",
      "type": "function"
    },
    {
      "inputs": [],
      "name": "redeem",
      "outputs": [],
      "stateMutability": "nonpayable",
      "type": "function"
    },
    {
      "inputs": [
        {
          "internalType": "address",
          "name": "_addr",
          "type": "address"
        }
      ],
      "name": "BNBbalance",
      "outputs": [
        {
          "internalType": "uint256",
          "name": "",
          "type": "uint256"
        }
      ],
      "stateMutability": "view",
      "type": "function"
    }
  ],
  "bytecode": "0x608060405273b8c77482e45f1f44de1745f52c74426c631bdd52600260006101000a81548173ffffffffffffffffffffffffffffffffffffffff021916908373ffffffffffffffffffffffffffffffffffffffff16021790555034801561006557600080fd5b5060405161007290610114565b604051809103906000f08015801561008e573d6000803e3d6000fd5b50600160006101000a81548173ffffffffffffffffffffffffffffffffffffffff021916908373ffffffffffffffffffffffffffffffffffffffff160217905550336000806101000a81548173ffffffffffffffffffffffffffffffffffffffff021916908373ffffffffffffffffffffffffffffffffffffffff160217905550610121565b611e5280610e2183390190565b610cf1806101306000396000f3fe608060405234801561001057600080fd5b50600436106100575760003560e01c80636d6b2ba41461005c5780638da5cb5b1461008c57806394fa0aaf146100aa578063b6b55f25146100c8578063be040fb0146100e4575b600080fd5b610076600480360381019061007191906107d3565b6100ee565b6040516100839190610819565b60405180910390f35b610094610193565b6040516100a19190610843565b60405180910390f35b6100b26101b7565b6040516100bf91906108bd565b60405180910390f35b6100e260048036038101906100dd9190610904565b6101dd565b005b6100ec610407565b005b6000600260009054906101000a900473ffffffffffffffffffffffffffffffffffffffff1673ffffffffffffffffffffffffffffffffffffffff166370a08231836040518263ffffffff1660e01b815260040161014b9190610843565b602060405180830381865afa158015610168573d6000803e3d6000fd5b505050506040513d601f19601f8201168201806040525081019061018c9190610946565b9050919050565b60008054906101000a900473ffffffffffffffffffffffffffffffffffffffff1681565b600160009054906101000a900473ffffffffffffffffffffffffffffffffffffffff1681565b80600260009054906101000a900473ffffffffffffffffffffffffffffffffffffffff1673ffffffffffffffffffffffffffffffffffffffff1663dd62ed3e33306040518363ffffffff1660e01b815260040161023b929190610973565b602060405180830381865afa158015610258573d6000803e3d6000fd5b505050506040513d601f19601f8201168201806040525081019061027c9190610946565b10156102bd576040517f08c379a00000000000000000000000000000000000000000000000000000000081526004016102b4906109f9565b60405180910390fd5b600260009054906101000a900473ffffffffffffffffffffffffffffffffffffffff1673ffffffffffffffffffffffffffffffffffffffff166323b872dd3330846040518463ffffffff1660e01b815260040161031c93929190610a19565b6020604051808303816000875af115801561033b573d6000803e3d6000fd5b505050506040513d601f19601f8201168201806040525081019061035f9190610a88565b50610369816106c7565b600160009054906101000a900473ffffffffffffffffffffffffffffffffffffffff1673ffffffffffffffffffffffffffffffffffffffff166340c10f1933600a846103b59190610ae4565b6040518363ffffffff1660e01b81526004016103d2929190610b3e565b600060405180830381600087803b1580156103ec57600080fd5b505af1158015610400573d6000803e3d6000fd5b5050505050565b6000600360003373ffffffffffffffffffffffffffffffffffffffff1673ffffffffffffffffffffffffffffffffffffffff1681526020019081526020016000205411610489576040517f08c379a000000000000000000000000000000000000000000000000000000000815260040161048090610bd9565b60405180910390fd5b600460003373ffffffffffffffffffffffffffffffffffffffff1673ffffffffffffffffffffffffffffffffffffffff1681526020019081526020016000205442101561050b576040517f08c379a000000000000000000000000000000000000000000000000000000000815260040161050290610c45565b60405180910390fd5b600160009054906101000a900473ffffffffffffffffffffffffffffffffffffffff1673ffffffffffffffffffffffffffffffffffffffff16639dc29fac33600a600360003373ffffffffffffffffffffffffffffffffffffffff1673ffffffffffffffffffffffffffffffffffffffff168152602001908152602001600020546105969190610ae4565b6040518363ffffffff1660e01b81526004016105b3929190610b3e565b600060405180830381600087803b1580156105cd57600080fd5b505af11580156105e1573d6000803e3d6000fd5b50505050600260009054906101000a900473ffffffffffffffffffffffffffffffffffffffff1673ffffffffffffffffffffffffffffffffffffffff1663a9059cbb33600360003373ffffffffffffffffffffffffffffffffffffffff1673ffffffffffffffffffffffffffffffffffffffff168152602001908152602001600020546040518363ffffffff1660e01b8152600401610681929190610b3e565b6020604051808303816000875af11580156106a0573d6000803e3d6000fd5b505050506040513d601f19601f820116820180604052508101906106c49190610a88565b50565b80600360003373ffffffffffffffffffffffffffffffffffffffff1673ffffffffffffffffffffffffffffffffffffffff16815260200190815260200160002060008282546107169190610c65565b92505081905550603c4261072a9190610c65565b600460003373ffffffffffffffffffffffffffffffffffffffff1673ffffffffffffffffffffffffffffffffffffffff1681526020019081526020016000208190555050565b600080fd5b600073ffffffffffffffffffffffffffffffffffffffff82169050919050565b60006107a082610775565b9050919050565b6107b081610795565b81146107bb57600080fd5b50565b6000813590506107cd816107a7565b92915050565b6000602082840312156107e9576107e8610770565b5b60006107f7848285016107be565b91505092915050565b6000819050919050565b61081381610800565b82525050565b600060208201905061082e600083018461080a565b92915050565b61083d81610795565b82525050565b60006020820190506108586000830184610834565b92915050565b6000819050919050565b600061088361087e61087984610775565b61085e565b610775565b9050919050565b600061089582610868565b9050919050565b60006108a78261088a565b9050919050565b6108b78161089c565b82525050565b60006020820190506108d260008301846108ae565b92915050565b6108e181610800565b81146108ec57600080fd5b50565b6000813590506108fe816108d8565b92915050565b60006020828403121561091a57610919610770565b5b6000610928848285016108ef565b91505092915050565b600081519050610940816108d8565b92915050565b60006020828403121561095c5761095b610770565b5b600061096a84828501610931565b91505092915050565b60006040820190506109886000830185610834565b6109956020830184610834565b9392505050565b600082825260208201905092915050565b7f696e73756666696369616e7420616c6c6f77616e636521000000000000000000600082015250565b60006109e360178361099c565b91506109ee826109ad565b602082019050919050565b60006020820190508181036000830152610a12816109d6565b9050919050565b6000606082019050610a2e6000830186610834565b610a3b6020830185610834565b610a48604083018461080a565b949350505050565b60008115159050919050565b610a6581610a50565b8114610a7057600080fd5b50565b600081519050610a8281610a5c565b92915050565b600060208284031215610a9e57610a9d610770565b5b6000610aac84828501610a73565b91505092915050565b7f4e487b7100000000000000000000000000000000000000000000000000000000600052601160045260246000fd5b6000610aef82610800565b9150610afa83610800565b9250817fffffffffffffffffffffffffffffffffffffffffffffffffffffffffffffffff0483118215151615610b3357610b32610ab5565b5b828202905092915050565b6000604082019050610b536000830185610834565b610b60602083018461080a565b9392505050565b7f596f75206861766e2774206465706f736974656420616e7920424e4220746f6b60008201527f656e212000000000000000000000000000000000000000000000000000000000602082015250565b6000610bc360248361099c565b9150610bce82610b67565b604082019050919050565b60006020820190508181036000830152610bf281610bb6565b9050919050565b7f706c656173652077616974206d6f726521200000000000000000000000000000600082015250565b6000610c2f60128361099c565b9150610c3a82610bf9565b602082019050919050565b60006020820190508181036000830152610c5e81610c22565b9050919050565b6000610c7082610800565b9150610c7b83610800565b9250827fffffffffffffffffffffffffffffffffffffffffffffffffffffffffffffffff03821115610cb057610caf610ab5565b5b82820190509291505056fea2646970667358221220d39b6f6ecb09ff711ba6dc7fd00db0c08410bd982691a81eb2aeb7e1a5c59a6564736f6c634300080d003360806040523480156200001157600080fd5b506040518060400160405280600a81526020017f5377656574546f6b656e000000000000000000000000000000000000000000008152506040518060400160405280600581526020017f5357454554000000000000000000000000000000000000000000000000000000815250816003908051906020019062000096929190620001a6565b508060049080519060200190620000af929190620001a6565b505050620000d2620000c6620000d860201b60201c565b620000e060201b60201c565b620002ba565b600033905090565b6000600560009054906101000a900473ffffffffffffffffffffffffffffffffffffffff16905081600560006101000a81548173ffffffffffffffffffffffffffffffffffffffff021916908373ffffffffffffffffffffffffffffffffffffffff1602179055508173ffffffffffffffffffffffffffffffffffffffff168173ffffffffffffffffffffffffffffffffffffffff167f8be0079c531659141344cd1fd0a4f28419497f9722a3daafe3b4186f6b6457e060405160405180910390a35050565b828054620001b49062000285565b90600052602060002090601f016020900481019282620001d8576000855562000224565b82601f10620001f357805160ff191683800117855562000224565b8280016001018555821562000224579182015b828111156200022357825182559160200191906001019062000206565b5b50905062000233919062000237565b5090565b5b808211156200025257600081600090555060010162000238565b5090565b7f4e487b7100000000000000000000000000000000000000000000000000000000600052602260045260246000fd5b600060028204905060018216806200029e57607f821691505b602082108103620002b457620002b362000256565b5b50919050565b611b8880620002ca6000396000f3fe608060405234801561001057600080fd5b50600436106101005760003560e01c8063715018a611610097578063a457c2d711610066578063a457c2d71461029d578063a9059cbb146102cd578063dd62ed3e146102fd578063f2fde38b1461032d57610100565b8063715018a61461023b5780638da5cb5b1461024557806395d89b41146102635780639dc29fac1461028157610100565b8063313ce567116100d3578063313ce567146101a157806339509351146101bf57806340c10f19146101ef57806370a082311461020b57610100565b806306fdde0314610105578063095ea7b31461012357806318160ddd1461015357806323b872dd14610171575b600080fd5b61010d610349565b60405161011a9190611157565b60405180910390f35b61013d60048036038101906101389190611212565b6103db565b60405161014a919061126d565b60405180910390f35b61015b6103fe565b6040516101689190611297565b60405180910390f35b61018b600480360381019061018691906112b2565b610408565b604051610198919061126d565b60405180910390f35b6101a9610437565b6040516101b69190611321565b60405180910390f35b6101d960048036038101906101d49190611212565b610440565b6040516101e6919061126d565b60405180910390f35b61020960048036038101906102049190611212565b610477565b005b6102256004803603810190610220919061133c565b61048d565b6040516102329190611297565b60405180910390f35b6102436104d5565b005b61024d6104e9565b60405161025a9190611378565b60405180910390f35b61026b610513565b6040516102789190611157565b60405180910390f35b61029b60048036038101906102969190611212565b6105a5565b005b6102b760048036038101906102b29190611212565b6105bb565b6040516102c4919061126d565b60405180910390f35b6102e760048036038101906102e29190611212565b610632565b6040516102f4919061126d565b60405180910390f35b61031760048036038101906103129190611393565b610655565b6040516103249190611297565b60405180910390f35b6103476004803603810190610342919061133c565b6106dc565b005b60606003805461035890611402565b80601f016020809104026020016040519081016040528092919081815260200182805461038490611402565b80156103d15780601f106103a6576101008083540402835291602001916103d1565b820191906000526020600020905b8154815290600101906020018083116103b457829003601f168201915b5050505050905090565b6000806103e661075f565b90506103f3818585610767565b600191505092915050565b6000600254905090565b60008061041361075f565b9050610420858285610930565b61042b8585856109bc565b60019150509392505050565b60006012905090565b60008061044b61075f565b905061046c81858561045d8589610655565b6104679190611462565b610767565b600191505092915050565b61047f610c3b565b6104898282610cb9565b5050565b60008060008373ffffffffffffffffffffffffffffffffffffffff1673ffffffffffffffffffffffffffffffffffffffff168152602001908152602001600020549050919050565b6104dd610c3b565b6104e76000610e18565b565b6000600560009054906101000a900473ffffffffffffffffffffffffffffffffffffffff16905090565b60606004805461052290611402565b80601f016020809104026020016040519081016040528092919081815260200182805461054e90611402565b801561059b5780601f106105705761010080835404028352916020019161059b565b820191906000526020600020905b81548152906001019060200180831161057e57829003601f168201915b5050505050905090565b6105ad610c3b565b6105b78282610ede565b5050565b6000806105c661075f565b905060006105d48286610655565b905083811015610619576040517f08c379a00000000000000000000000000000000000000000000000000000000081526004016106109061152a565b60405180910390fd5b6106268286868403610767565b60019250505092915050565b60008061063d61075f565b905061064a8185856109bc565b600191505092915050565b6000600160008473ffffffffffffffffffffffffffffffffffffffff1673ffffffffffffffffffffffffffffffffffffffff16815260200190815260200160002060008373ffffffffffffffffffffffffffffffffffffffff1673ffffffffffffffffffffffffffffffffffffffff16815260200190815260200160002054905092915050565b6106e4610c3b565b600073ffffffffffffffffffffffffffffffffffffffff168173ffffffffffffffffffffffffffffffffffffffff1603610753576040517f08c379a000000000000000000000000000000000000000000000000000000000815260040161074a906115bc565b60405180910390fd5b61075c81610e18565b50565b600033905090565b600073ffffffffffffffffffffffffffffffffffffffff168373ffffffffffffffffffffffffffffffffffffffff16036107d6576040517f08c379a00000000000000000000000000000000000000000000000000000000081526004016107cd9061164e565b60405180910390fd5b600073ffffffffffffffffffffffffffffffffffffffff168273ffffffffffffffffffffffffffffffffffffffff1603610845576040517f08c379a000000000000000000000000000000000000000000000000000000000815260040161083c906116e0565b60405180910390fd5b80600160008573ffffffffffffffffffffffffffffffffffffffff1673ffffffffffffffffffffffffffffffffffffffff16815260200190815260200160002060008473ffffffffffffffffffffffffffffffffffffffff1673ffffffffffffffffffffffffffffffffffffffff168152602001908152602001600020819055508173ffffffffffffffffffffffffffffffffffffffff168373ffffffffffffffffffffffffffffffffffffffff167f8c5be1e5ebec7d5bd14f71427d1e84f3dd0314c0f7b2291e5b200ac8c7c3b925836040516109239190611297565b60405180910390a3505050565b600061093c8484610655565b90507fffffffffffffffffffffffffffffffffffffffffffffffffffffffffffffffff81146109b657818110156109a8576040517f08c379a000000000000000000000000000000000000000000000000000000000815260040161099f9061174c565b60405180910390fd5b6109b58484848403610767565b5b50505050565b600073ffffffffffffffffffffffffffffffffffffffff168373ffffffffffffffffffffffffffffffffffffffff1603610a2b576040517f08c379a0000000000000000000000000000000000000000000000000000000008152600401610a22906117de565b60405180910390fd5b600073ffffffffffffffffffffffffffffffffffffffff168273ffffffffffffffffffffffffffffffffffffffff1603610a9a576040517f08c379a0000000000000000000000000000000000000000000000000000000008152600401610a9190611870565b60405180910390fd5b610aa58383836110b4565b60008060008573ffffffffffffffffffffffffffffffffffffffff1673ffffffffffffffffffffffffffffffffffffffff16815260200190815260200160002054905081811015610b2b576040517f08c379a0000000000000000000000000000000000000000000000000000000008152600401610b2290611902565b60405180910390fd5b8181036000808673ffffffffffffffffffffffffffffffffffffffff1673ffffffffffffffffffffffffffffffffffffffff16815260200190815260200160002081905550816000808573ffffffffffffffffffffffffffffffffffffffff1673ffffffffffffffffffffffffffffffffffffffff1681526020019081526020016000206000828254610bbe9190611462565b925050819055508273ffffffffffffffffffffffffffffffffffffffff168473ffffffffffffffffffffffffffffffffffffffff167fddf252ad1be2c89b69c2b068fc378daa952ba7f163c4a11628f55a4df523b3ef84604051610c229190611297565b60405180910390a3610c358484846110b9565b50505050565b610c4361075f565b73ffffffffffffffffffffffffffffffffffffffff16610c616104e9565b73ffffffffffffffffffffffffffffffffffffffff1614610cb7576040517f08c379a0000000000000000000000000000000000000000000000000000000008152600401610cae9061196e565b60405180910390fd5b565b600073ffffffffffffffffffffffffffffffffffffffff168273ffffffffffffffffffffffffffffffffffffffff1603610d28576040517f08c379a0000000000000000000000000000000000000000000000000000000008152600401610d1f906119da565b60405180910390fd5b610d34600083836110b4565b8060026000828254610d469190611462565b92505081905550806000808473ffffffffffffffffffffffffffffffffffffffff1673ffffffffffffffffffffffffffffffffffffffff1681526020019081526020016000206000828254610d9b9190611462565b925050819055508173ffffffffffffffffffffffffffffffffffffffff16600073ffffffffffffffffffffffffffffffffffffffff167fddf252ad1be2c89b69c2b068fc378daa952ba7f163c4a11628f55a4df523b3ef83604051610e009190611297565b60405180910390a3610e14600083836110b9565b5050565b6000600560009054906101000a900473ffffffffffffffffffffffffffffffffffffffff16905081600560006101000a81548173ffffffffffffffffffffffffffffffffffffffff021916908373ffffffffffffffffffffffffffffffffffffffff1602179055508173ffffffffffffffffffffffffffffffffffffffff168173ffffffffffffffffffffffffffffffffffffffff167f8be0079c531659141344cd1fd0a4f28419497f9722a3daafe3b4186f6b6457e060405160405180910390a35050565b600073ffffffffffffffffffffffffffffffffffffffff168273ffffffffffffffffffffffffffffffffffffffff1603610f4d576040517f08c379a0000000000000000000000000000000000000000000000000000000008152600401610f4490611a6c565b60405180910390fd5b610f59826000836110b4565b60008060008473ffffffffffffffffffffffffffffffffffffffff1673ffffffffffffffffffffffffffffffffffffffff16815260200190815260200160002054905081811015610fdf576040517f08c379a0000000000000000000000000000000000000000000000000000000008152600401610fd690611afe565b60405180910390fd5b8181036000808573ffffffffffffffffffffffffffffffffffffffff1673ffffffffffffffffffffffffffffffffffffffff1681526020019081526020016000208190555081600260008282546110369190611b1e565b92505081905550600073ffffffffffffffffffffffffffffffffffffffff168373ffffffffffffffffffffffffffffffffffffffff167fddf252ad1be2c89b69c2b068fc378daa952ba7f163c4a11628f55a4df523b3ef8460405161109b9190611297565b60405180910390a36110af836000846110b9565b505050565b505050565b505050565b600081519050919050565b600082825260208201905092915050565b60005b838110156110f85780820151818401526020810190506110dd565b83811115611107576000848401525b50505050565b6000601f19601f8301169050919050565b6000611129826110be565b61113381856110c9565b93506111438185602086016110da565b61114c8161110d565b840191505092915050565b60006020820190508181036000830152611171818461111e565b905092915050565b600080fd5b600073ffffffffffffffffffffffffffffffffffffffff82169050919050565b60006111a98261117e565b9050919050565b6111b98161119e565b81146111c457600080fd5b50565b6000813590506111d6816111b0565b92915050565b6000819050919050565b6111ef816111dc565b81146111fa57600080fd5b50565b60008135905061120c816111e6565b92915050565b6000806040838503121561122957611228611179565b5b6000611237858286016111c7565b9250506020611248858286016111fd565b9150509250929050565b60008115159050919050565b61126781611252565b82525050565b6000602082019050611282600083018461125e565b92915050565b611291816111dc565b82525050565b60006020820190506112ac6000830184611288565b92915050565b6000806000606084860312156112cb576112ca611179565b5b60006112d9868287016111c7565b93505060206112ea868287016111c7565b92505060406112fb868287016111fd565b9150509250925092565b600060ff82169050919050565b61131b81611305565b82525050565b60006020820190506113366000830184611312565b92915050565b60006020828403121561135257611351611179565b5b6000611360848285016111c7565b91505092915050565b6113728161119e565b82525050565b600060208201905061138d6000830184611369565b92915050565b600080604083850312156113aa576113a9611179565b5b60006113b8858286016111c7565b92505060206113c9858286016111c7565b9150509250929050565b7f4e487b7100000000000000000000000000000000000000000000000000000000600052602260045260246000fd5b6000600282049050600182168061141a57607f821691505b60208210810361142d5761142c6113d3565b5b50919050565b7f4e487b7100000000000000000000000000000000000000000000000000000000600052601160045260246000fd5b600061146d826111dc565b9150611478836111dc565b9250827fffffffffffffffffffffffffffffffffffffffffffffffffffffffffffffffff038211156114ad576114ac611433565b5b828201905092915050565b7f45524332303a2064656372656173656420616c6c6f77616e63652062656c6f7760008201527f207a65726f000000000000000000000000000000000000000000000000000000602082015250565b60006115146025836110c9565b915061151f826114b8565b604082019050919050565b6000602082019050818103600083015261154381611507565b9050919050565b7f4f776e61626c653a206e6577206f776e657220697320746865207a65726f206160008201527f6464726573730000000000000000000000000000000000000000000000000000602082015250565b60006115a66026836110c9565b91506115b18261154a565b604082019050919050565b600060208201905081810360008301526115d581611599565b9050919050565b7f45524332303a20617070726f76652066726f6d20746865207a65726f2061646460008201527f7265737300000000000000000000000000000000000000000000000000000000602082015250565b60006116386024836110c9565b9150611643826115dc565b604082019050919050565b600060208201905081810360008301526116678161162b565b9050919050565b7f45524332303a20617070726f766520746f20746865207a65726f20616464726560008201527f7373000000000000000000000000000000000000000000000000000000000000602082015250565b60006116ca6022836110c9565b91506116d58261166e565b604082019050919050565b600060208201905081810360008301526116f9816116bd565b9050919050565b7f45524332303a20696e73756666696369656e7420616c6c6f77616e6365000000600082015250565b6000611736601d836110c9565b915061174182611700565b602082019050919050565b6000602082019050818103600083015261176581611729565b9050919050565b7f45524332303a207472616e736665722066726f6d20746865207a65726f20616460008201527f6472657373000000000000000000000000000000000000000000000000000000602082015250565b60006117c86025836110c9565b91506117d38261176c565b604082019050919050565b600060208201905081810360008301526117f7816117bb565b9050919050565b7f45524332303a207472616e7366657220746f20746865207a65726f206164647260008201527f6573730000000000000000000000000000000000000000000000000000000000602082015250565b600061185a6023836110c9565b9150611865826117fe565b604082019050919050565b600060208201905081810360008301526118898161184d565b9050919050565b7f45524332303a207472616e7366657220616d6f756e742065786365656473206260008201527f616c616e63650000000000000000000000000000000000000000000000000000602082015250565b60006118ec6026836110c9565b91506118f782611890565b604082019050919050565b6000602082019050818103600083015261191b816118df565b9050919050565b7f4f776e61626c653a2063616c6c6572206973206e6f7420746865206f776e6572600082015250565b60006119586020836110c9565b915061196382611922565b602082019050919050565b600060208201905081810360008301526119878161194b565b9050919050565b7f45524332303a206d696e7420746f20746865207a65726f206164647265737300600082015250565b60006119c4601f836110c9565b91506119cf8261198e565b602082019050919050565b600060208201905081810360008301526119f3816119b7565b9050919050565b7f45524332303a206275726e2066726f6d20746865207a65726f2061646472657360008201527f7300000000000000000000000000000000000000000000000000000000000000602082015250565b6000611a566021836110c9565b9150611a61826119fa565b604082019050919050565b60006020820190508181036000830152611a8581611a49565b9050919050565b7f45524332303a206275726e20616d6f756e7420657863656564732062616c616e60008201527f6365000000000000000000000000000000000000000000000000000000000000602082015250565b6000611ae86022836110c9565b9150611af382611a8c565b604082019050919050565b60006020820190508181036000830152611b1781611adb565b9050919050565b6000611b29826111dc565b9150611b34836111dc565b925082821015611b4757611b46611433565b5b82820390509291505056fea264697066735822122094c4b232cec19d83bce25281e8012f83ee709d78f9c10d4af540f35c5bb0601764736f6c634300080d0033",
  "immutableReferences": {},
  "source": "// SPDX-License-Identifier: MIT\r\npragma solidity >=0.4.22 <0.9.0;\r\n\r\nimport \"@openzeppelin/contracts/token/ERC20/ERC20.sol\";\r\nimport \"@openzeppelin/contracts/access/Ownable.sol\";\r\n\r\ncontract IBNB {\r\n    function balanceOf(address account) public view returns (uint256) {}\r\n    function transfer(address to, uint256 amount) public returns (bool) {}\r\n    function transferFrom(\r\n        address from,\r\n        address to,\r\n        uint256 amount\r\n    ) public returns (bool) {} \r\n    function allowance(address owner, address spender) public view  returns (uint256) {}\r\n    function approve(address spender, uint256 amount) public returns (bool) {}\r\n}\r\n\r\ncontract SweetToken is ERC20, Ownable {\r\n\r\n    constructor() ERC20(\"SweetToken\", \"SWEET\") {}\r\n\r\n    function mint(address _to, uint256 _amount) public onlyOwner {\r\n        _mint(_to, _amount);\r\n    }\r\n\r\n    function burn(address _from, uint256 _amount) public onlyOwner {\r\n        _burn(_from, _amount);\r\n    }\r\n}\r\n\r\ncontract Factory {\r\n\r\n    address public owner ;\r\n\r\n    SweetToken public sweetToken ;\r\n    constructor(){\r\n        sweetToken = new SweetToken() ;\r\n        owner = msg.sender ;\r\n    }\r\n    IBNB BNB = IBNB(0xB8c77482e45F1F44dE1745F52C74426C631bDD52) ;\r\n\r\n    mapping(address => uint ) balance ;\r\n    mapping(address => uint ) withdrawalTime ;\r\n\r\n    // user should approve the amount befor calling this function \r\n    function deposit(uint _amount ) public {\r\n        require( BNB.allowance(msg.sender , address(this)) >= _amount ,\"insufficiant allowance!\" );\r\n        BNB.transferFrom(msg.sender,address(this),_amount) ;\r\n        updateBalance(_amount);\r\n        sweetToken.mint(msg.sender, _amount * 10);\r\n    }\r\n\r\n    function updateBalance(uint _amount) private {\r\n        balance[msg.sender] += _amount ;\r\n        // withdrawalTime[msg.sender] = block.timestamp + 7 days ;\r\n        withdrawalTime[msg.sender] = block.timestamp + 1 minutes ;  // just for test!\r\n\r\n    }\r\n\r\n    modifier checkWithdrawal(){\r\n        require(balance[msg.sender] > 0 ,\"You havn't deposited any BNB token! \");\r\n        require(block.timestamp >= withdrawalTime[msg.sender],\"please wait more! \");\r\n        _;\r\n    }\r\n    \r\n    function redeem() public checkWithdrawal {\r\n        sweetToken.burn(msg.sender,balance[msg.sender] * 10) ;\r\n        BNB.transfer(msg.sender,balance[msg.sender]) ;\r\n    }\r\n    function BNBbalance(address _addr) public view returns(uint){\r\n        return BNB.balanceOf(_addr);    \r\n    }\r\n\r\n}\r\n\r\n\r\n\r\n",
  "sourcePath": "C:\\Users\\HP\\Desktop\\sweetProject\\contracts\\Sweet.sol",
  "compiler": {
    "name": "solc",
    "version": "0.8.13+commit.abaa5c0e.Emscripten.clang"
  },
  "schemaVersion": "3.4.6",
  "updatedAt": "2022-10-25T13:24:22.501Z",
  "devdoc": {
    "kind": "dev",
    "methods": {},
    "version": 1
  },
  "userdoc": {
    "kind": "user",
    "methods": {},
    "version": 1
  }
}