{
  "contractName": "IBNB",
  "abi": [
    {
      "inputs": [
        {
          "internalType": "address",
          "name": "account",
          "type": "address"
        }
      ],
      "name": "balanceOf",
      "outputs": [
        {
          "internalType": "uint256",
          "name": "",
          "type": "uint256"
        }
      ],
      "stateMutability": "view",
      "type": "function"
    },
    {
      "inputs": [
        {
          "internalType": "address",
          "name": "to",
          "type": "address"
        },
        {
          "internalType": "uint256",
          "name": "amount",
          "type": "uint256"
        }
      ],
      "name": "transfer",
      "outputs": [
        {
          "internalType": "bool",
          "name": "",
          "type": "bool"
        }
      ],
      "stateMutability": "nonpayable",
      "type": "function"
    },
    {
      "inputs": [
        {
          "internalType": "address",
          "name": "from",
          "type": "address"
        },
        {
          "internalType": "address",
          "name": "to",
          "type": "address"
        },
        {
          "internalType": "uint256",
          "name": "amount",
          "type": "uint256"
        }
      ],
      "name": "transferFrom",
      "outputs": [
        {
          "internalType": "bool",
          "name": "",
          "type": "bool"
        }
      ],
      "stateMutability": "nonpayable",
      "type": "function"
    },
    {
      "inputs": [
        {
          "internalType": "address",
          "name": "owner",
          "type": "address"
        },
        {
          "internalType": "address",
          "name": "spender",
          "type": "address"
        }
      ],
      "name": "allowance",
      "outputs": [
        {
          "internalType": "uint256",
          "name": "",
          "type": "uint256"
        }
      ],
      "stateMutability": "view",
      "type": "function"
    },
    {
      "inputs": [
        {
          "internalType": "address",
          "name": "spender",
          "type": "address"
        },
        {
          "internalType": "uint256",
          "name": "amount",
          "type": "uint256"
        }
      ],
      "name": "approve",
      "outputs": [
        {
          "internalType": "bool",
          "name": "",
          "type": "bool"
        }
      ],
      "stateMutability": "nonpayable",
      "type": "function"
    }
  ],
  "bytecode": "0x608060405234801561001057600080fd5b506103a3806100206000396000f3fe608060405234801561001057600080fd5b50600436106100575760003560e01c8063095ea7b31461005c57806323b872dd1461008c57806370a08231146100bc578063a9059cbb146100ec578063dd62ed3e1461011c575b600080fd5b6100766004803603810190610071919061020d565b61014c565b6040516100839190610268565b60405180910390f35b6100a660048036038101906100a19190610283565b610154565b6040516100b39190610268565b60405180910390f35b6100d660048036038101906100d191906102d6565b61015d565b6040516100e39190610312565b60405180910390f35b6101066004803603810190610101919061020d565b610164565b6040516101139190610268565b60405180910390f35b6101366004803603810190610131919061032d565b61016c565b6040516101439190610312565b60405180910390f35b600092915050565b60009392505050565b6000919050565b600092915050565b600092915050565b600080fd5b600073ffffffffffffffffffffffffffffffffffffffff82169050919050565b60006101a482610179565b9050919050565b6101b481610199565b81146101bf57600080fd5b50565b6000813590506101d1816101ab565b92915050565b6000819050919050565b6101ea816101d7565b81146101f557600080fd5b50565b600081359050610207816101e1565b92915050565b6000806040838503121561022457610223610174565b5b6000610232858286016101c2565b9250506020610243858286016101f8565b9150509250929050565b60008115159050919050565b6102628161024d565b82525050565b600060208201905061027d6000830184610259565b92915050565b60008060006060848603121561029c5761029b610174565b5b60006102aa868287016101c2565b93505060206102bb868287016101c2565b92505060406102cc868287016101f8565b9150509250925092565b6000602082840312156102ec576102eb610174565b5b60006102fa848285016101c2565b91505092915050565b61030c816101d7565b82525050565b60006020820190506103276000830184610303565b92915050565b6000806040838503121561034457610343610174565b5b6000610352858286016101c2565b9250506020610363858286016101c2565b915050925092905056fea2646970667358221220af02f1d59a6cd0eaebbf6186ba09a3fd44af4fa5601de19738dedbb80d5e1e2e64736f6c634300080d0033",
  "immutableReferences": {},
  "source": "// SPDX-License-Identifier: MIT\r\npragma solidity >=0.4.22 <0.9.0;\r\n\r\nimport \"@openzeppelin/contracts/token/ERC20/ERC20.sol\";\r\nimport \"@openzeppelin/contracts/access/Ownable.sol\";\r\n\r\ncontract IBNB {\r\n    function balanceOf(address account) public view returns (uint256) {}\r\n    function transfer(address to, uint256 amount) public returns (bool) {}\r\n    function transferFrom(\r\n        address from,\r\n        address to,\r\n        uint256 amount\r\n    ) public returns (bool) {} \r\n    function allowance(address owner, address spender) public view  returns (uint256) {}\r\n    function approve(address spender, uint256 amount) public returns (bool) {}\r\n}\r\n\r\ncontract SweetToken is ERC20, Ownable {\r\n\r\n    constructor() ERC20(\"SweetToken\", \"SWEET\") {}\r\n\r\n    function mint(address _to, uint256 _amount) public onlyOwner {\r\n        _mint(_to, _amount);\r\n    }\r\n\r\n    function burn(address _from, uint256 _amount) public onlyOwner {\r\n        _burn(_from, _amount);\r\n    }\r\n}\r\n\r\ncontract Factory {\r\n\r\n    address public owner ;\r\n\r\n    SweetToken public sweetToken ;\r\n    constructor(){\r\n        sweetToken = new SweetToken() ;\r\n        owner = msg.sender ;\r\n    }\r\n    IBNB BNB = IBNB(0xB8c77482e45F1F44dE1745F52C74426C631bDD52) ;\r\n\r\n    mapping(address => uint ) balance ;\r\n    mapping(address => uint ) withdrawalTime ;\r\n\r\n    // user should approve the amount befor calling this function \r\n    function deposit(uint _amount ) public {\r\n        require( BNB.allowance(msg.sender , address(this)) >= _amount ,\"insufficiant allowance!\" );\r\n        BNB.transferFrom(msg.sender,address(this),_amount) ;\r\n        updateBalance(_amount);\r\n        sweetToken.mint(msg.sender, _amount * 10);\r\n    }\r\n\r\n    function updateBalance(uint _amount) private {\r\n        balance[msg.sender] += _amount ;\r\n        // withdrawalTime[msg.sender] = block.timestamp + 7 days ;\r\n        withdrawalTime[msg.sender] = block.timestamp + 1 minutes ;  // just for test!\r\n\r\n    }\r\n\r\n    modifier checkWithdrawal(){\r\n        require(balance[msg.sender] > 0 ,\"You havn't deposited any BNB token! \");\r\n        require(block.timestamp >= withdrawalTime[msg.sender],\"please wait more! \");\r\n        _;\r\n    }\r\n    \r\n    function redeem() public checkWithdrawal {\r\n        sweetToken.burn(msg.sender,balance[msg.sender] * 10) ;\r\n        BNB.transfer(msg.sender,balance[msg.sender]) ;\r\n    }\r\n    function BNBbalance(address _addr) public view returns(uint){\r\n        return BNB.balanceOf(_addr);    \r\n    }\r\n\r\n}\r\n\r\n\r\n\r\n",
  "sourcePath": "C:\\Users\\HP\\Desktop\\sweetProject\\contracts\\Sweet.sol",
  "compiler": {
    "name": "solc",
    "version": "0.8.13+commit.abaa5c0e.Emscripten.clang"
  },
  "schemaVersion": "3.4.6",
  "updatedAt": "2022-10-25T13:24:22.512Z",
  "devdoc": {
    "kind": "dev",
    "methods": {},
    "version": 1
  },
  "userdoc": {
    "kind": "user",
    "methods": {},
    "version": 1
  }
}