{
  "contractName": "ISweetToken",
  "abi": [
    {
      "inputs": [
        {
          "internalType": "address",
          "name": "_to",
          "type": "address"
        },
        {
          "internalType": "uint256",
          "name": "_amount",
          "type": "uint256"
        }
      ],
      "name": "mint",
      "outputs": [],
      "stateMutability": "nonpayable",
      "type": "function"
    },
    {
      "inputs": [
        {
          "internalType": "address",
          "name": "_from",
          "type": "address"
        },
        {
          "internalType": "uint256",
          "name": "_amount",
          "type": "uint256"
        }
      ],
      "name": "burn",
      "outputs": [],
      "stateMutability": "nonpayable",
      "type": "function"
    }
  ],
  "bytecode": "0x608060405234801561001057600080fd5b5061018a806100206000396000f3fe608060405234801561001057600080fd5b50600436106100365760003560e01c806340c10f191461003b5780639dc29fac14610057575b600080fd5b61005560048036038101906100509190610114565b610073565b005b610071600480360381019061006c9190610114565b610077565b005b5050565b5050565b600080fd5b600073ffffffffffffffffffffffffffffffffffffffff82169050919050565b60006100ab82610080565b9050919050565b6100bb816100a0565b81146100c657600080fd5b50565b6000813590506100d8816100b2565b92915050565b6000819050919050565b6100f1816100de565b81146100fc57600080fd5b50565b60008135905061010e816100e8565b92915050565b6000806040838503121561012b5761012a61007b565b5b6000610139858286016100c9565b925050602061014a858286016100ff565b915050925092905056fea2646970667358221220e8b9b67435a5799c275d1c2a66c1c0d7c52218ce4576266ff40a771637bf774c64736f6c634300080d0033",
  "immutableReferences": {},
  "source": "// SPDX-License-Identifier: MIT\r\npragma solidity >=0.4.22 <0.9.0;\r\n\r\ncontract ISweetToken {\r\n\r\n\r\n    function mint(address _to, uint256 _amount) public  {}\r\n\r\n    function burn(address _from, uint256 _amount) public  {}\r\n}",
  "sourcePath": "C:\\Users\\HP\\Desktop\\sweetProject\\contracts\\testHelper.sol",
  "compiler": {
    "name": "solc",
    "version": "0.8.13+commit.abaa5c0e.Emscripten.clang"
  },
  "schemaVersion": "3.4.6",
  "updatedAt": "2022-10-25T13:24:22.519Z",
  "devdoc": {
    "kind": "dev",
    "methods": {},
    "version": 1
  },
  "userdoc": {
    "kind": "user",
    "methods": {},
    "version": 1
  }
}